{
  "contractName": "prashCoin",
  "abi": [
    {
      "constant": false,
      "inputs": [
        {
          "name": "_name",
          "type": "string"
        },
        {
          "name": "_pin",
          "type": "uint256"
        }
      ],
      "name": "create_account",
      "outputs": [],
      "payable": false,
      "stateMutability": "nonpayable",
      "type": "function"
    },
    {
      "constant": true,
      "inputs": [
        {
          "name": "_pin",
          "type": "uint256"
        }
      ],
      "name": "check_balance",
      "outputs": [
        {
          "name": "",
          "type": "uint256"
        }
      ],
      "payable": false,
      "stateMutability": "view",
      "type": "function"
    },
    {
      "constant": false,
      "inputs": [
        {
          "name": "_receiver",
          "type": "address"
        },
        {
          "name": "_amt",
          "type": "uint256"
        },
        {
          "name": "_pin",
          "type": "uint256"
        }
      ],
      "name": "transfer_coin",
      "outputs": [],
      "payable": false,
      "stateMutability": "nonpayable",
      "type": "function"
    }
  ],
  "bytecode": "0x608060405234801561001057600080fd5b506106b4806100206000396000f300608060405260043610610057576000357c0100000000000000000000000000000000000000000000000000000000900463ffffffff16806341d2ad381461005c57806374ff5141146100b3578063a5acf7b314610126575b600080fd5b34801561006857600080fd5b506100b1600480360381019080803573ffffffffffffffffffffffffffffffffffffffff1690602001909291908035906020019092919080359060200190929190505050610167565b005b3480156100bf57600080fd5b50610124600480360381019080803590602001908201803590602001908080601f0160208091040260200160405190810160405280939291908181526020018383808284378201915050505050509192919290803590602001909291905050506103b9565b005b34801561013257600080fd5b50610151600480360381019080803590602001909291905050506104af565b6040518082815260200191505060405180910390f35b806000803373ffffffffffffffffffffffffffffffffffffffff1673ffffffffffffffffffffffffffffffffffffffff168152602001908152602001600020600201548114801561024457506000803373ffffffffffffffffffffffffffffffffffffffff1673ffffffffffffffffffffffffffffffffffffffff16815260200190815260200160002060000160009054906101000a900473ffffffffffffffffffffffffffffffffffffffff1673ffffffffffffffffffffffffffffffffffffffff163373ffffffffffffffffffffffffffffffffffffffff16145b151561024f57600080fd5b82806000803373ffffffffffffffffffffffffffffffffffffffff1673ffffffffffffffffffffffffffffffffffffffff16815260200190815260200160002060030154101515156102a057600080fd5b836000803373ffffffffffffffffffffffffffffffffffffffff1673ffffffffffffffffffffffffffffffffffffffff16815260200190815260200160002060030154036000803373ffffffffffffffffffffffffffffffffffffffff1673ffffffffffffffffffffffffffffffffffffffff16815260200190815260200160002060030181905550836000808773ffffffffffffffffffffffffffffffffffffffff1673ffffffffffffffffffffffffffffffffffffffff16815260200190815260200160002060030154016000808773ffffffffffffffffffffffffffffffffffffffff1673ffffffffffffffffffffffffffffffffffffffff168152602001908152602001600020600301819055505050505050565b6080604051908101604052803373ffffffffffffffffffffffffffffffffffffffff168152602001838152602001828152602001600a8152506000803373ffffffffffffffffffffffffffffffffffffffff1673ffffffffffffffffffffffffffffffffffffffff16815260200190815260200160002060008201518160000160006101000a81548173ffffffffffffffffffffffffffffffffffffffff021916908373ffffffffffffffffffffffffffffffffffffffff16021790555060208201518160010190805190602001906104939291906105e3565b5060408201518160020155606082015181600301559050505050565b6000816000803373ffffffffffffffffffffffffffffffffffffffff1673ffffffffffffffffffffffffffffffffffffffff168152602001908152602001600020600201548114801561058e57506000803373ffffffffffffffffffffffffffffffffffffffff1673ffffffffffffffffffffffffffffffffffffffff16815260200190815260200160002060000160009054906101000a900473ffffffffffffffffffffffffffffffffffffffff1673ffffffffffffffffffffffffffffffffffffffff163373ffffffffffffffffffffffffffffffffffffffff16145b151561059957600080fd5b6000803373ffffffffffffffffffffffffffffffffffffffff1673ffffffffffffffffffffffffffffffffffffffff16815260200190815260200160002060030154915050919050565b828054600181600116156101000203166002900490600052602060002090601f016020900481019282601f1061062457805160ff1916838001178555610652565b82800160010185558215610652579182015b82811115610651578251825591602001919060010190610636565b5b50905061065f9190610663565b5090565b61068591905b80821115610681576000816000905550600101610669565b5090565b905600a165627a7a72305820341029400015ec14f74b7862342fc6dffbfb17bb0f103389300f6144777cb7c60029",
  "source": "pragma solidity >=0.4.21 <0.7.0;\n\ncontract prashCoin{\n    struct User{\n        address account_address;\n        string name;\n        uint pin;\n        uint amount;\n    }\n    mapping(address=>User) private users;\n    function create_account(string memory _name,uint _pin) public{\n        users[msg.sender] = User(msg.sender,_name,_pin,10);\n    }\n    modifier isUser(uint _pin){\n        require(_pin == users[msg.sender].pin && msg.sender == users[msg.sender].account_address);\n        _;\n    }\n    modifier verifyBalance(uint _amt){\n        require(users[msg.sender].amount>=_amt);\n        _;\n    }\n    function check_balance(uint _pin) public isUser(_pin) view returns(uint){\n        return users[msg.sender].amount;\n    }\n    function transfer_coin(address _receiver,uint _amt,uint _pin) isUser(_pin) verifyBalance(_amt) public{\n        users[msg.sender].amount = users[msg.sender].amount - _amt;\n        users[_receiver].amount = users[_receiver].amount + _amt;\n    }\n}",
  "sourcePath": "/home/prashilalva/prashcoins/contracts/prashcoin.sol",
  "compiler": {
    "name": "solc",
    "version": "0.4.26+commit.4563c3fc.Emscripten.clang"
  },
  "schemaVersion": "2.0.3",
  "updatedAt": "2020-02-27T04:26:15.249Z"
}